:100000000C942A000C9402180C9447000C9447009E
:100010000C9447000C9447000C9447000C94470044
:100020000C9447000C9447000C9447000C94470034
:100030000C9447000C9447000C9447000C94470024
:100040000C9447000C9447000C9447000C94470014
:100050000C94470011241FBECFE5D8E0DEBFCDBF12
:1000600011E0A0E6B0E0E2EDF0E302C005900D92F1
:10007000A438B107D9F711E0A4E8B1E001C01D929E
:10008000A538B107E1F70E9440160C9467180C944C
:100090000000EF92FF920F931F937B018C0120E0F1
:1000A00030E040E05FE40E94490388238CF0C801FF
:1000B000B70120E030E040E05FE40E94C1010E940F
:1000C000A9039B01AC01205030404040504806C07D
:1000D000C801B7010E94A9039B01AC01B901CA0183
:1000E0001F910F91FF90EF900895A0E0B0E0EBE733
:1000F000F0E00C943018DC012B01FA019C91923055
:1001000008F439C1EB018881823008F433C194309E
:1001100069F4843009F02FC111969C91119789815F
:10012000981709F428C1ABE7B0E025C1843009F481
:1001300021C18230A9F4923009F01DC19A01AD01AC
:1001400088E0EA010990AE01E90109929E0181501F
:10015000C1F7E201898111969C918923818308C1AD
:10016000923009F407C112962D903C901397EB0141
:100170008A819B811496AD90BD90CD90DC901797AD
:10018000EC80FD800E811F819101281B390BB90184
:1001900037FF04C066277727621B730B6032710537
:1001A0000CF061C0121613066CF537014801062EDB
:1001B00004C096948794779467940A94D2F721E0C8
:1001C00030E040E050E004C0220F331F441F551FB1
:1001D0006A95D2F721503040404050402E213F21B7
:1001E00040235123211531054105510521F021E01E
:1001F00030E040E050E079018A01E628F72808293C
:1002000019293CC0232BD1F1260E371E350146019A
:10021000062E04C096948794779467940A94D2F734
:1002200021E030E040E050E004C0220F331F441FC3
:10023000551F6A95D2F721503040404050402A2146
:100240003B214C215D21211531054105510521F04E
:1002500021E030E040E050E059016A01A628B728CB
:10026000C828D9280BC0821593052CF01C01AA249C
:10027000BB24650103C0EE24FF24870111969C91E5
:10028000D20111968C91981709F445C0992339F041
:10029000A80197012A193B094C095D0906C0A6016E
:1002A00095012E193F09400B510B57FD08C01182D3
:1002B0003382228224833583468357831DC081E0A5
:1002C00081833382228288279927DC01821B930B4A
:1002D000A40BB50B84839583A683B7830DC0220F2F
:1002E000331F441F551F24833583468357838281E0
:1002F000938101979383828324813581468157813D
:10030000DA01C9010197A109B1098F5F9F4FAF4F72
:10031000BF4328F30BC0918333822282EA0CFB1C7B
:100320000C1D1D1DE482F5820683178383E0808304
:10033000248135814681578157FF1AC0C901AA27F8
:1003400097FDA095BA2F81709070A070B0705695EF
:10035000479537952795822B932BA42BB52B848318
:100360009583A683B7838281938101969383828349
:10037000DF0101C0D201CD01CDB7DEB7E2E10C94BF
:100380004C18A0E2B0E0E7ECF1E00C943C18698373
:100390007A838B839C832D833E834F835887E9E048
:1003A000EE2EF12CEC0EFD1ECE010196B7010E943F
:1003B0009A058E010F5E1F4FCE010596B8010E946F
:1003C0009A058A8991E089278A8BC701B801AE0115
:1003D000475E5F4F0E9475000E94C504A096E6E04C
:1003E0000C945818A0E2B0E0E8EFF1E00C943C184F
:1003F00069837A838B839C832D833E834F835887C5
:10040000F9E0EF2EF12CEC0EFD1ECE010196B701A6
:100410000E949A058E010F5E1F4FCE010596B8010E
:100420000E949A05C701B801AE01475E5F4F0E9466
:1004300075000E94C504A096E6E00C945818A0E24E
:10044000B0E0E5E2F2E00C94301869837A838B83A4
:100450009C832D833E834F835887CE010196BE0136
:10046000675F7F4F0E949A05CE010596BE016F5EC1
:100470007F4F0E949A059985923088F08989823051
:10048000C8F0943019F4823051F404C0843029F457
:10049000923081F48BE790E0C6C0923049F420E0BE
:1004A0009A858A89981321E02A87CE010996BBC0D4
:1004B000823049F420E09A858A89981321E02A8BBA
:1004C000CE014196B0C02D843E844F8458886D88FB
:1004D0007E888F88988CEE24FF248701AA24BB2471
:1004E000650140E050E060E070E0E0E0F0E0C10174
:1004F00081709070892BE9F0E60CF71C081D191D1E
:100500009A01AB012A0D3B1D4C1D5D1D80E090E062
:10051000A0E0B0E0E614F7040805190520F481E036
:1005200090E0A0E0B0E0BA01A901480F591F6A1F8E
:100530007B1FAA0CBB1CCC1CDD1C97FE08C081E0F5
:1005400090E0A0E0B0E0A82AB92ACA2ADB2A3196B6
:10055000E032F10549F0660C771C881C991C569412
:10056000479437942794C3CFFA85EA892B893C892D
:100570008B859C85280F391F2E5F3F4F17C0CA01FE
:1005800081709070892B61F016950795F794E79428
:1005900080E090E0A0E0B0E8E82AF92A0A2B1B2BC3
:1005A00076956795579547952F5F3F4F77FDE7CF36
:1005B0000CC0440F551F661F771F17FD4160EE0CDE
:1005C000FF1C001F111F21503040403090E05907A0
:1005D00090E0690790E4790760F32B8F3C8FDB0193
:1005E000CA018F779070A070B07080349105A1051A
:1005F000B10561F447FD0AC0E114F10401051105DC
:1006000029F0405C5F4F6F4F7F4F40781A8EFE1786
:1006100011F081E08A8F4D8F5E8F6F8F78A383E01A
:10062000898FCE0149960E94C504A096E2E10C9400
:100630004C18A8E1B0E0EFE1F3E00C943C186983BA
:100640007A838B839C832D833E834F83588789E0F5
:10065000E82EF12CEC0EFD1ECE010196B7010E9492
:100660009A058E010F5E1F4FCE010596B8010E94BC
:100670009A058985823040F08989823028F0C70147
:10068000B8010E94120601C08FEF6896E6E00C9454
:100690005818A8E1B0E0EFE4F3E00C943C1869834B
:1006A0007A838B839C832D833E834F83588789E095
:1006B000E82EF12CEC0EFD1ECE010196B7010E9432
:1006C0009A058E010F5E1F4FCE010596B8010E945C
:1006D0009A058985823040F08989823028F0C701E7
:1006E000B8010E94120601C08FEF6896E6E00C94F4
:1006F0005818A8E1B0E0EFE7F3E00C943C186983E8
:100700007A838B839C832D833E834F83588789E034
:10071000E82EF12CEC0EFD1ECE010196B7010E94D1
:100720009A058E010F5E1F4FCE010596B8010E94FB
:100730009A058985823040F08989823028F0C70186
:10074000B8010E94120601C081E06896E6E00C94B0
:100750005818ACE0B0E0EFEAF3E00C94401869837D
:100760007A838B839C83CE010196BE016B5F7F4FA2
:100770000E949A058D81823061F1823050F184307F
:1007800021F48E81882351F12EC02F81388537FDC9
:1007900020C06E812F3131051CF06623F9F023C093
:1007A0008EE190E0821B930B29853A854B855C8511
:1007B00004C056954795379527958A95D2F76623B5
:1007C000B1F050954095309521953F4F4F4F5F4F79
:1007D0000EC020E030E040E050E009C02FEF3FEFD6
:1007E0004FEF5FE704C020E030E040E050E8B9019F
:1007F000CA012C96E2E00C945C18A8E0B0E0E3E0BB
:10080000F4E00C9438187B018C01611571058105A9
:10081000910519F482E0898360C083E089838EE1C9
:10082000C82ED12CDC82CB82ED82FE820F8318870A
:10083000C801B7010E947604FC013197F7FF3BC065
:10084000222733272E1B3F0B57016801022E04C0BD
:10085000D694C794B794A7940A94D2F740E050E096
:1008600060E070E081E090E0A0E0B0E004C0880FBC
:10087000991FAA1FBB1F2A95D2F70197A109B10999
:100880008E219F21A023B1230097A105B10521F05E
:1008900041E050E060E070E04A295B296C297D2945
:1008A0004D835E836F8378878EE190E08E1B9F0B74
:1008B0009C838B8312C0309781F00E2E04C0EE0C07
:1008C000FF1C001F111F0A94D2F7ED82FE820F83D6
:1008D0001887CE1ADF0ADC82CB821A82CE010196FB
:1008E0000E94C5042896EAE00C945418EF92FF92F7
:1008F0000F931F937B018C0180E0E81680E0F806DF
:1009000081E0080780E0180788F48FEFE816F1040B
:100910000105110531F028F088E090E0A0E0B0E09A
:1009200017C080E090E0A0E0B0E012C080E0E816E0
:1009300080E0F80680E0080781E0180728F088E1E9
:1009400090E0A0E0B0E004C080E190E0A0E0B0E082
:1009500020E230E040E050E0281B390B4A0B5B0BF3
:1009600004C016950795F794E7948A95D2F7F70196
:10097000ED57FF4F8081281B310941095109C901F9
:100980001F910F91FF90EF900895DF92EF92FF92E9
:100990000F931F93FC01E480F58006811781D180BD
:1009A0008081823048F480E090E0A0E1B0E0E82A65
:1009B000F92A0A2B1B2BA5C0843009F49FC0823072
:1009C00021F4EE24FF24870105C0E114F1040105A0
:1009D000110519F4E0E0F0E096C0628173819FEFA9
:1009E000623879070CF05BC022E83FEF261B370B1B
:1009F0002A3131052CF020E030E040E050E02AC000
:100A0000B801A701022E04C07695679557954795C2
:100A10000A94D2F781E090E0A0E0B0E004C0880F33
:100A2000991FAA1FBB1F2A95D2F70197A109B109E7
:100A30008E219F21A023B1230097A105B10521F0AC
:100A400081E090E0A0E0B0E09A01AB01282B392BC7
:100A50004A2B5B2BDA01C9018F779070A070B070C0
:100A600080349105A105B10539F427FF09C0205C48
:100A70003F4F4F4F5F4F04C0215C3F4F4F4F5F4F81
:100A8000E0E0F0E02030A0E03A07A0E04A07A0E470
:100A90005A0710F0E1E0F0E079018A0127C06038E0
:100AA000710564F5FB01E158FF4FD801C7018F774D
:100AB0009070A070B07080349105A105B10539F433
:100AC000E7FE0DC080E490E0A0E0B0E004C08FE35A
:100AD00090E0A0E0B0E0E80EF91E0A1F1B1F17FF10
:100AE00005C016950795F794E794319687E016951B
:100AF0000795F794E7948A95D1F705C0EE24FF2473
:100B00008701EFEFF0E06E2F679566276795902FCE
:100B10009F77D794DD24D7948E2F8695492F462B27
:100B2000582F5D29B701CA011F910F91FF90EF90D7
:100B3000DF900895FC01DB01408151812281622F09
:100B40006F7770E0221F2227221F9381892F880F41
:100B5000822B282F30E0991F9927991F11969C937B
:100B6000119721153105A9F541155105610571054B
:100B700011F482E037C082E89FEF13969C938E9326
:100B800012979A01AB0167E0220F331F441F551FD4
:100B90006A95D1F783E08C930DC0220F331F441F59
:100BA000551F12968D919C911397019713969C93C4
:100BB0008E931297203080E0380780E0480780E469
:100BC000580758F314962D933D934D935C931797C4
:100BD00008952F3F310579F44115510561057105DF
:100BE00019F484E08C93089564FF03C081E08C9332
:100BF00012C01C9210C02F57304013963C932E9376
:100C0000129783E08C9387E0440F551F661F771F70
:100C10008A95D1F7706414964D935D936D937C9390
:100C2000179708951F93DC01FB019C91923008F403
:100C300047C08081823008F443C0943051F411964B
:100C40001C91843099F58181682F70E0611B7109D6
:100C50003FC0843021F0923031F48230B9F181818B
:100C6000882389F12DC011961C9111978230F1F0E3
:100C700081811817D9F412962D913C911397828196
:100C800093818217930794F028173907BCF01496C4
:100C90008D919D910D90BC91A02D2481358146812F
:100CA0005781281739074A075B0718F4112341F0C9
:100CB0000AC082179307A407B50740F4112319F05F
:100CC00061E070E005C06FEF7FEF02C060E070E0B0
:100CD000CB011F910895DF93CF9300D000D000D0B7
:100CE000CDB7DEB79C838B837E836D838B819C81A4
:100CF0009A83898313C029813A818B819C81AC01BD
:100D0000249FC001259F900D349F900D11249A833C
:100D100089838D819E8101979E838D838D819E81A4
:100D20008230910540F789819A8126960FB6F89412
:100D3000DEBF0FBECDBFCF91DF910895DF93CF937C
:100D400000D000D00F92CDB7DEB79D838C831B827D
:100D50008C819D819A8389830DC089819A812AE043
:100D600030E0B9010E941C18CB019A8389838B81E2
:100D70008F5F8B8389819A81009779F78B810F90A0
:100D80000F900F900F900F90CF91DF910895EF92F9
:100D9000FF920F931F93DF93CF93CDB7DEB72797C3
:100DA0000FB6F894DEBF0FBECDBF9E838D836F83D9
:100DB0008D819E810E949E06882F90E09C838B836C
:100DC00081E090E09A8389838F81282F30E08B81A6
:100DD0009C8128173907A1F48F81882F90E0019713
:100DE0009C018AE090E0B9010E946B069C018D8114
:100DF0009E81B9010E941C18CB019A83898369C026
:100E00008F81813051F48D819E812AE030E0B901DB
:100E10000E941C189A8389835CC08F81882F90E080
:100E200001979C018AE090E0B9010E946B069C0149
:100E30008D819E81B9010E941C18CB018C018F818C
:100E4000882F90E001979C018AE090E0B9010E9410
:100E50006B06089F7001099FF00C189FF00C11247D
:100E60008F81282F30E08AE090E0B9010E946B0664
:100E70009C018D819E81B9010E941C18CB018C01BF
:100E80008F81282F30E08AE090E0B9010E946B0644
:100E90009C01029FC001039F900D129F900D112491
:100EA0009701281B390BC9019A8389838F81882F69
:100EB00090E001979C018AE090E0B9010E946B06E6
:100EC0009C0189819A81B9010E941C18CB019A83E7
:100ED000898389819A8127960FB6F894DEBF0FBE69
:100EE000CDBFCF91DF911F910F91FF90EF900895AB
:100EF000DF93CF9300D00F92CDB7DEB7898389817E
:100F0000282F30E03B832A838A819B8181309105A1
:100F1000D1F02A813B81223031052CF48A819B81DA
:100F2000009761F01EC02A813B812230310581F09B
:100F30008A819B818330910581F013C0EAE3F0E060
:100F40008FEF80830EC0E7E3F0E08FEF808309C06E
:100F5000E4E3F0E08FEF808304C0E1E3F0E08FEFA3
:100F600080830F900F900F90CF91DF910895DF93C2
:100F7000CF9300D00F92CDB7DEB789838981282F18
:100F800030E03B832A838A819B8181309105E9F09F
:100F90002A813B81223031052CF48A819B81009784
:100FA00061F02AC02A813B8122303105B1F08A816B
:100FB0009B8183309105C9F01FC0EAE3F0E0108205
:100FC000EBE3F0E08FEF808317C0E7E3F0E01082FF
:100FD000E8E3F0E08FEF80830FC0E4E3F0E01082FD
:100FE000E5E3F0E08FEF808307C0E1E3F0E01082FB
:100FF000E2E3F0E08FEF80830F900F900F90CF919E
:10100000DF910895DF93CF9300D00F92CDB7DEB775
:1010100089838981282F30E03B832A838A819B81C1
:1010200081309105D1F02A813B81223031052CF4A9
:101030008A819B81009761F01EC02A813B8122300A
:10104000310581F08A819B818330910581F013C045
:10105000EBE3F0E08FEF80830EC0E8E3F0E08FEF8A
:10106000808309C0E5E3F0E08FEF808304C0E2E312
:10107000F0E08FEF80830F900F900F90CF91DF9172
:101080000895DF93CF9300D00F92CDB7DEB7898359
:101090008981282F30E03B832A838A819B8181309C
:1010A0009105C9F02A813B81223031052CF48A81D7
:1010B0009B81009761F01AC02A813B812230310563
:1010C00071F08A819B818330910569F00FC0EBE359
:1010D000F0E010820BC0E8E3F0E0108207C0E5E327
:1010E000F0E0108203C0E2E3F0E010820F900F9076
:1010F0000F90CF91DF910895DF93CF9300D000D070
:10110000CDB7DEB78A838A81282F30E03C832B83DA
:101110008B819C8181309105D1F02B813C812230E3
:1011200031052CF48B819C81009761F01EC02B81CE
:101130003C812230310581F08B819C818330910587
:1011400081F013C0E9E3F0E0808189830EC0E6E31B
:10115000F0E08081898309C0E3E3F0E08081898346
:1011600004C0E0E3F0E08081898389810F900F90D3
:101170000F900F90CF91DF910895DF93CF9300D020
:1011800000D0CDB7DEB789836A838981282F30E00C
:101190003C832B838B819C8181309105D1F02B8105
:1011A0003C81223031052CF48B819C81009761F0C9
:1011B0001EC02B813C812230310581F08B819C81C6
:1011C0008330910581F013C0EBE3F0E08A818083E6
:1011D0000EC0E8E3F0E08A81808309C0E5E3F0E037
:1011E0008A81808304C0E2E3F0E08A8180830F90EB
:1011F0000F900F900F90CF91DF910895DF93CF93D1
:1012000000D000D0CDB7DEB789836A838981282FCB
:1012100030E03C832B838B819C818130910549F1A7
:101220002B813C81223031052CF48B819C810097ED
:1012300061F05AC02B813C812230310571F18B81E4
:101240009C8183309105E9F14FC0AAE3B0E0EAE365
:10125000F0E08081482F8A81282F30E081E090E003
:10126000022E02C0880F991F0A94E2F7842B8C93F8
:101270003BC0A7E3B0E0E7E3F0E08081482F8A813C
:10128000282F30E081E090E0022E02C0880F991FE5
:101290000A94E2F7842B8C9327C0A4E3B0E0E4E344
:1012A000F0E08081482F8A81282F30E081E090E0B3
:1012B000022E02C0880F991F0A94E2F7842B8C93A8
:1012C00013C0A1E3B0E0E1E3F0E08081482F8A8120
:1012D000282F30E081E090E0022E02C0880F991F95
:1012E0000A94E2F7842B8C930F900F900F900F903D
:1012F000CF91DF910895DF93CF9300D000D0CDB789
:10130000DEB789836A838981282F30E03C832B8371
:101310008B819C818130910509F43EC02B813C81F9
:10132000223031052CF48B819C81009771F0A8C08C
:101330002B813C812230310509F455C08B819C8181
:101340008330910509F476C09BC0AAE3B0E0EAE3DC
:10135000F0E08081482F8A81282F30E081E090E002
:1013600002C0880F991F2A95E2F7809584238C93F9
:10137000ABE3B0E0EBE3F0E08081482F8A81282FD7
:1013800030E081E090E0022E02C0880F991F0A949D
:10139000E2F7842B8C9374C0A7E3B0E0E7E3F0E0BE
:1013A0008081482F8A81282F30E081E090E002C0C0
:1013B000880F991F2A95E2F7809584238C93A8E3E0
:1013C000B0E0E8E3F0E08081482F8A81282F30E008
:1013D00081E090E0022E02C0880F991F0A94E2F784
:1013E000842B8C934DC0A4E3B0E0E4E3F0E0808173
:1013F000482F8A81282F30E081E090E002C0880FDA
:10140000991F2A95E2F7809584238C93A5E3B0E099
:10141000E5E3F0E08081482F8A81282F30E081E0E9
:1014200090E0022E02C0880F991F0A94E2F7842BE5
:101430008C9326C0A1E3B0E0E1E3F0E08081482F87
:101440008A81282F30E081E090E002C0880F991F48
:101450002A95E2F7809584238C93A2E3B0E0E2E33F
:10146000F0E08081482F8A81282F30E081E090E0F1
:10147000022E02C0880F991F0A94E2F7842B8C93E6
:101480000F900F900F900F90CF91DF910895DF9301
:10149000CF9300D000D0CDB7DEB789836A8389812E
:1014A000282F30E03C832B838B819C8181309105F8
:1014B00049F12B813C81223031052CF48B819C81B8
:1014C000009761F05AC02B813C812230310571F1C7
:1014D0008B819C8183309105E9F14FC0ABE3B0E093
:1014E000EBE3F0E08081482F8A81282F30E081E013
:1014F00090E0022E02C0880F991F0A94E2F7842B15
:101500008C933BC0A8E3B0E0E8E3F0E08081482F93
:101510008A81282F30E081E090E0022E02C0880FFF
:10152000991F0A94E2F7842B8C9327C0A5E3B0E0BF
:10153000E5E3F0E08081482F8A81282F30E081E0C8
:1015400090E0022E02C0880F991F0A94E2F7842BC4
:101550008C9313C0A2E3B0E0E2E3F0E08081482F77
:101560008A81282F30E081E090E0022E02C0880FAF
:10157000991F0A94E2F7842B8C930F900F900F9091
:101580000F90CF91DF910895DF93CF9300D000D0DB
:10159000CDB7DEB789836A838981282F30E03C8309
:1015A0002B838B819C818130910559F12B813C816A
:1015B000223031052CF48B819C81009769F05FC04B
:1015C0002B813C812230310589F18B819C818330D4
:1015D000910509F440C053C0ABE3B0E0EBE3F0E0A9
:1015E0008081482F8A81282F30E081E090E0022E10
:1015F00002C0880F991F0A94E2F7809584238C9388
:101600003EC0A8E3B0E0E8E3F0E08081482F8A81A3
:10161000282F30E081E090E0022E02C0880F991F51
:101620000A94E2F7809584238C9329C0A5E3B0E067
:10163000E5E3F0E08081482F8A81282F30E081E0C7
:1016400090E0022E02C0880F991F0A94E2F780955D
:1016500084238C9314C0A2E3B0E0E2E3F0E0808145
:10166000482F8A81282F30E081E090E0022E02C0CE
:10167000880F991F0A94E2F7809584238C930F902A
:101680000F900F900F90CF91DF910895DF93CF933C
:1016900000D000D00F92CDB7DEB78A836B838A81EA
:1016A000282F30E03D832C834C815D8141305105F2
:1016B000B1F18C819D818230910534F42C813D8182
:1016C0002115310571F084C04C815D814230510596
:1016D00009F443C08C819D818330910509F45BC07E
:1016E00077C0E9E3F0E08081482F50E08B81282F1C
:1016F00030E081E090E002C0880F991F2A95E2F760
:101700009A01282339238B81882F90E0A90102C0F8
:10171000559547958A95E2F7CA01898359C0E6E352
:10172000F0E08081482F50E08B81282F30E081E06D
:1017300090E002C0880F991F2A95E2F79A012823AA
:1017400039238B81882F90E0A90102C055954795D8
:101750008A95E2F7CA0189833BC0E3E3F0E0808128
:10176000482F50E08B81282F30E081E090E002C0CC
:10177000880F991F2A95E2F79A01282339238B8134
:10178000882F90E0A90102C0559547958A95E2F708
:10179000CA0189831DC0E0E3F0E08081482F50E05A
:1017A0008B81282F30E081E090E002C0880F991FE4
:1017B0002A95E2F79A01282339238B81882F90E01C
:1017C000A90102C0559547958A95E2F7CA01898318
:1017D00089810F900F900F900F900F90CF91DF9114
:1017E0000895DF93CF93CDB7DEB727970FB6F89460
:1017F000DEBF0FBECDBF89836A834B838B8181306F
:1018000009F06FC08981282F30E03F832E838E81BD
:101810009F818130910549F12E813F812230310530
:101820002CF48E819F81009761F0D2C02E813F8180
:101830002230310571F18E819F8183309105E9F16C
:10184000C7C0ABE3B0E0EBE3F0E08081482F8A81D2
:10185000282F30E081E090E0022E02C0880F991F0F
:101860000A94E2F7842B8C93B3C0A8E3B0E0E8E3DA
:10187000F0E08081482F8A81282F30E081E090E0DD
:10188000022E02C0880F991F0A94E2F7842B8C93D2
:101890009FC0A5E3B0E0E5E3F0E08081482F8A81B6
:1018A000282F30E081E090E0022E02C0880F991FBF
:1018B0000A94E2F7842B8C938BC0A2E3B0E0E2E3BE
:1018C000F0E08081482F8A81282F30E081E090E08D
:1018D000022E02C0880F991F0A94E2F7842B8C9382
:1018E00077C08B81882309F073C08981282F30E06D
:1018F0003D832C838C819D818130910559F12C8110
:101900003D81223031052CF48C819D81009769F056
:101910005FC02C813D812230310589F18C819D8110
:101920008330910509F440C053C0ABE3B0E0EBE372
:10193000F0E08081482F8A81282F30E081E090E01C
:10194000022E02C0880F991F0A94E2F78095842323
:101950008C933EC0A8E3B0E0E8E3F0E08081482F3C
:101960008A81282F30E081E090E0022E02C0880FAB
:10197000991F0A94E2F7809584238C9329C0A5E3EC
:10198000B0E0E5E3F0E08081482F8A81282F30E045
:1019900081E090E0022E02C0880F991F0A94E2F7BE
:1019A000809584238C9314C0A2E3B0E0E2E3F0E0DE
:1019B0008081482F8A81282F30E081E090E0022E3C
:1019C00002C0880F991F0A94E2F7809584238C93B4
:1019D00027960FB6F894DEBF0FBECDBFCF91DF9133
:1019E0000895DF93CF93CDB7DEB7A9E5B0E0E9E581
:1019F000F0E0808181608C93CF91DF910895DF9337
:101A0000CF93CDB7DEB7A9E5B0E0E9E5F0E080819E
:101A10008E7F8C93CF91DF910895DF93CF93CDB7D5
:101A2000DEB7A9E5B0E0E9E5F0E0808182608C9363
:101A3000CF91DF910895DF93CF93CDB7DEB7A9E5BE
:101A4000B0E0E9E5F0E080818D7F8C93CF91DF916C
:101A50000895DF93CF93CDB7DEB7E8E5F0E080815E
:101A60008170CF91DF910895DF93CF93CDB7DEB72B
:101A7000E8E5F0E08081882F90E082709070959585
:101A80008795CF91DF910895DF93CF93CDB7DEB7E0
:101A9000A8E5B0E0E8E5F0E0808181608C93CF912B
:101AA000DF910895DF93CF93CDB7DEB7A8E5B0E01F
:101AB000E8E5F0E0808182608C93CF91DF9108951A
:101AC000DF93CF9300D000D00F92CDB7DEB78983DC
:101AD0008981282F30E03B832A838A819B81833050
:101AE000910559F12A813B81243031055CF48A81CA
:101AF0009B818130910589F02A813B81223031051B
:101B0000A1F032C08A819B8184309105F1F02A8155
:101B10003B812530310509F127C0A3E5B0E0E3E5BD
:101B2000F0E0808181608C931FC0A3E5B0E0E3E525
:101B3000F0E0808182608C9317C0A3E5B0E0E3E51C
:101B4000F0E0808183608C930FC0A3E5B0E0E3E513
:101B5000F0E0808184608C9307C0A3E5B0E0E3E50A
:101B6000F0E0808185608C930F900F900F900F9024
:101B70000F90CF91DF910895DF93CF93CDB7DEB76C
:101B8000A3E5B0E0E3E5F0E08081887F8C93CF911E
:101B9000DF910895DF93CF93CDB7DEB7A3E5B0E033
:101BA000E3E5F0E0808180688C93CF91DF91089528
:101BB000DF93CF9300D000D0CDB7DEB789836A839F
:101BC0008981282F30E03C832B838B819C8181305D
:101BD000910531F02B813C812230310521F005C087
:101BE0000E94F10C02C00E94FF0CE2E5F0E08A8145
:101BF0008083A3E5B0E0E3E5F0E08081877B8C9310
:101C00000F900F900F900F90CF91DF910895DF9379
:101C1000CF93CDB7DEB728970FB6F894DEBF0FBECF
:101C2000CDBF89836A834B832C83A3E5B0E0E3E5D2
:101C3000F0E08081877B8C93A3E5B0E0E3E5F0E002
:101C4000808188608C938981282F30E038872F83AA
:101C50008F8198858130910521F12F81388522303F
:101C600031052CF48F819885009761F05BC02F813E
:101C700038852230310559F18F819885833091055F
:101C8000E1F150C0A7E3B0E0E7E3F0E08081877FB7
:101C90008C93A3E5B0E0E3E5F0E080818F7C8C934A
:101CA00041C0A7E3B0E0E7E3F0E0808188608C9377
:101CB000A3E5B0E0E3E5F0E080818F7C8C93A3E5C1
:101CC000B0E0E3E5F0E0808180618C932BC0A7E376
:101CD000B0E0E7E3F0E0808188608C93A3E5B0E0BA
:101CE000E3E5F0E080818F7C8C93A3E5B0E0E3E551
:101CF000F0E0808180628C9315C0A7E3B0E0E7E359
:101D0000F0E0808188608C93A3E5B0E0E3E5F0E04B
:101D100080818F7C8C93A3E5B0E0E3E5F0E08081E7
:101D200080638C938A81282F30E03E832D838D81C0
:101D30009E818130910531F02D813E812230310527
:101D400021F005C00E940D0D02C00E941B0DE2E5AE
:101D5000F0E08C818083ECE5F0E08B818083289635
:101D60000FB6F894DEBF0FBECDBFCF91DF910895BF
:101D7000DF93CF93CDB7DEB728970FB6F894DEBFC9
:101D80000FBECDBF89836A834B832C83A3E5B0E06C
:101D9000E3E5F0E08081877B8C93A3E5B0E0E3E5A9
:101DA000F0E0808188648C938981282F30E0388727
:101DB0002F838F81988581309105C1F02F813885DF
:101DC0002230310549F18F8198850097D1F5A7E33D
:101DD000B0E0E7E3F0E08081877F8C93A3E5B0E09B
:101DE000E3E5F0E080818F7C8C932BC0A7E3B0E02B
:101DF000E7E3F0E0808188608C93A3E5B0E0E3E561
:101E0000F0E080818F7C8C93A3E5B0E0E3E5F0E027
:101E1000808180638C9315C0A7E3B0E0E7E3F0E036
:101E2000808188608C93A3E5B0E0E3E5F0E08081F9
:101E30008F7C8C93A3E5B0E0E3E5F0E080818062E5
:101E40008C938A81282F30E03E832D838D819E8163
:101E50008130910531F02D813E812230310521F014
:101E600005C00E94F10C02C00E94FF0CE2E5F0E008
:101E70008C818083ECE5F0E08B81808328960FB61F
:101E8000F894DEBF0FBECDBFCF91DF910895DF93F1
:101E9000CF93CDB7DEB780E00E94780782E061E0A3
:101EA0000E94FE0882E062E00E94FE0882E060E09C
:101EB0000E94FE0888E30E94660F81E00E94660F80
:101EC0008FE00E94660FCF91DF910895DF93CF934B
:101ED000CDB7DEB76D970FB6F894DEBF0FBECDBF9E
:101EE0008D8F82E060E040E00E94F10B82E062E0D2
:101EF00040E00E94F10B80E06D8D0E94BD0882E001
:101F000061E041E00E94F10B80E090E0A0E8BFE3D7
:101F1000898F9A8FAB8FBC8F698D7A8D8B8D9C8DBD
:101F200020E030E84BE355E40E941F02DC01CB01C6
:101F30008D8B9E8BAF8BB88F6D897E898F89988DA5
:101F400020E030E040E85FE30E94790388232CF42E
:101F500081E090E09C8B8B8B3FC06D897E898F895F
:101F6000988D20E03FEF4FE757E40E9419031816C1
:101F70004CF5698D7A8D8B8D9C8D20E030E040E2B0
:101F800051E40E941F02DC01CB01BC01CD010E9483
:101F90004900DC01CB019C8B8B8B0FC08CE291E064
:101FA0009A8B898B89899A890197F1F79A8B898B0A
:101FB0008B899C8901979C8B8B8B8B899C89009743
:101FC00069F714C06D897E898F89988D0E944900B8
:101FD000DC01CB019C8B8B8B8B899C89988B8F87A9
:101FE0008F8598890197F1F7988B8F8782E061E060
:101FF00040E00E94F10B80E090E0A0E8BFE38B8717
:102000009C87AD87BE876B857C858D859E8520E00E
:1020100030E84BE355E40E941F02DC01CB018F83C3
:102020009887A987BA876F81788589859A8520E006
:1020300030E040E85FE30E94790388232CF481E0DC
:1020400090E09E838D833FC06F81788589859A85D6
:1020500020E03FEF4FE757E40E94190318164CF5B4
:102060006B857C858D859E8520E030E040E251E4E3
:102070000E941F02DC01CB01BC01CD010E9449007E
:10208000DC01CB019E838D830FC08CE291E09C83A9
:102090008B838B819C810197F1F79C838B838D814E
:1020A0009E8101979E838D838D819E81009769F724
:1020B00014C06F81788589859A850E944900DC016A
:1020C000CB019E838D838D819E819A8389838981B3
:1020D0009A810197F1F79A8389836D960FB6F894E8
:1020E000DEBF0FBECDBFCF91DF910895DF93CF93B9
:1020F000CDB7DEB76F970FB6F894DEBF0FBECDBF7A
:102100009F8F8E8F1D8E08C182E060E041E00E94AB
:10211000F10B82E062E040E00E94F10B8D8D282FF0
:1021200030E08E8D9F8DFC01E20FF31F908180E0E7
:10213000692F0E94BD0882E061E041E00E94F10B3E
:1021400080E090E0A0E8BFE3898F9A8FAB8FBC8FCF
:10215000698D7A8D8B8D9C8D20E030E84BE355E4C2
:102160000E941F02DC01CB018D8B9E8BAF8BB88F41
:102170006D897E898F89988D20E030E040E85FE3AB
:102180000E94790388232CF481E090E09C8B8B8B58
:102190003FC06D897E898F89988D20E03FEF4FE7A2
:1021A00057E40E94190318164CF5698D7A8D8B8DB2
:1021B0009C8D20E030E040E251E40E941F02DC01EF
:1021C000CB01BC01CD010E944900DC01CB019C8BFD
:1021D0008B8B0FC08CE291E09A8B898B89899A89CD
:1021E0000197F1F79A8B898B8B899C8901979C8B3E
:1021F0008B8B8B899C89009769F714C06D897E89C8
:102200008F89988D0E944900DC01CB019C8B8B8BC0
:102210008B899C89988B8F878F8598890197F1F797
:10222000988B8F8782E061E040E00E94F10B80E0B4
:1022300090E0A0E8BFE38B879C87AD87BE876B8566
:102240007C858D859E8520E030E84BE355E40E9437
:102250001F02DC01CB018F839887A987BA876F8122
:10226000788589859A8520E030E040E85FE30E9428
:10227000790388232CF481E090E09E838D833FC016
:102280006F81788589859A8520E03FEF4FE757E495
:102290000E94190318164CF56B857C858D859E85EB
:1022A00020E030E040E251E40E941F02DC01CB015B
:1022B000BC01CD010E944900DC01CB019E838D83CE
:1022C0000FC08CE291E09C838B838B819C81019772
:1022D000F1F79C838B838D819E8101979E838D83F3
:1022E0008D819E81009769F714C06F8178858985FB
:1022F0009A850E944900DC01CB019E838D838D81EC
:102300009E819A83898389819A810197F1F79A83C3
:1023100089838D8D8F5F8D8F8D8D282F30E08E8DF1
:102320009F8DFC01E20FF31F80818A3009F0ECCE13
:102330006F960FB6F894DEBF0FBECDBFCF91DF9181
:102340000895DF93CF93CDB7DEB7AE970FB6F8946D
:10235000DEBF0FBECDBF9DA78CA76EA71BA681C1F8
:1023600082E060E041E00E94F10B82E062E040E048
:102370000E94F10B8BA5282F30E08CA59DA5FC01B8
:10238000E20FF31F908180E0692F0E94BD0882E078
:1023900061E041E00E94F10B80E090E0A0E8BFE343
:1023A0008FA398A7A9A7BAA76FA178A589A59AA571
:1023B00020E030E84BE355E40E941F02DC01CB0132
:1023C0008BA39CA3ADA3BEA36BA17CA18DA19EA159
:1023D00020E030E040E85FE30E94790388232CF49A
:1023E00081E090E09AA389A33FC06BA17CA18DA15D
:1023F0009EA120E03FEF4FE757E40E941903181613
:102400004CF56FA178A589A59AA520E030E040E2BF
:1024100051E40E941F02DC01CB01BC01CD010E94EE
:102420004900DC01CB019AA389A30FC08CE291E0A3
:1024300098A38F8F8F8D98A10197F1F798A38F8F15
:1024400089A19AA101979AA389A389A19AA100972A
:1024500069F714C06BA17CA18DA19EA10E944900C7
:10246000DC01CB019AA389A389A19AA19E8F8D8FAC
:102470008D8D9E8D0197F1F79E8F8D8F82E061E0AB
:1024800040E00E94F10B80E090E0A0E8BFE3898F7C
:102490009A8FAB8FBC8F698D7A8D8B8D9C8D20E050
:1024A00030E84BE355E40E941F02DC01CB018D8B29
:1024B0009E8BAF8BB88F6D897E898F89988D20E038
:1024C00030E040E85FE30E94790388232CF481E048
:1024D00090E09C8B8B8B3FC06D897E898F89988D16
:1024E00020E03FEF4FE757E40E94190318164CF520
:1024F000698D7A8D8B8D9C8D20E030E040E251E437
:102500000E941F02DC01CB01BC01CD010E944900E9
:10251000DC01CB019C8B8B8B0FC08CE291E09A8B02
:10252000898B89899A890197F1F79A8B898B8B8995
:102530009C8901979C8B8B8B8B899C89009769F771
:1025400014C06D897E898F89988D0E944900DC01B5
:10255000CB019C8B8B8B8B899C89988B8F878F85EC
:1025600098890197F1F7988B8F878EA5882F90E037
:10257000A0E0B0E0BC01CD010E94FD03DC01CB0175
:102580008B879C87AD87BE876B857C858D859E8577
:1025900020E030E84BE355E40E941F02DC01CB0150
:1025A0008F839887A987BA876F81788589859A856F
:1025B00020E030E040E85FE30E94790388232CF4B8
:1025C00081E090E09E838D833FC06F81788589850F
:1025D0009A8520E03FEF4FE757E40E941903181651
:1025E0004CF56B857C858D859E8520E030E040E252
:1025F00051E40E941F02DC01CB01BC01CD010E940D
:102600004900DC01CB019E838D830FC08CE291E0F9
:102610009C838B838B819C810197F1F79C838B83B7
:102620008D819E8101979E838D838D819E810097F0
:1026300069F714C06F81788589859A850E94490061
:10264000DC01CB019E838D838D819E819A8389835A
:1026500089819A810197F1F79A8389838BA58F5F8E
:102660008BA78BA5282F30E08CA59DA5FC01E20F40
:10267000F31F80818A3009F073CEAE960FB6F894BE
:10268000DEBF0FBECDBFCF91DF910895DF93CF9313
:10269000CDB7DEB7A1970FB6F894DEBF0FBECDBFA2
:1026A00099A388A388A199A10E949E068F8F1E8E50
:1026B0008F8D8D8F88A199A1009719F480E38E8F5B
:1026C0000DC18F8D8D8F06C188A199A16D8D0E943E
:1026D000C706805D8E8F82E060E041E00E94F10BD2
:1026E00082E062E040E00E94F10B80E06E8D0E948B
:1026F000BD0882E061E041E00E94F10B80E090E0E3
:10270000A0E8BFE3898F9A8FAB8FBC8F698D7A8DDC
:102710008B8D9C8D20E030E84BE355E40E941F0236
:10272000DC01CB018D8B9E8BAF8BB88F6D897E8941
:102730008F89988D20E030E040E85FE30E947903C4
:1027400088232CF481E090E09C8B8B8B3FC06D89BB
:102750007E898F89988D20E03FEF4FE757E40E94F4
:10276000190318164CF5698D7A8D8B8D9C8D20E0A0
:1027700030E040E251E40E941F02DC01CB01BC01C9
:10278000CD010E944900DC01CB019C8B8B8B0FC0DB
:102790008CE291E09A8B898B89899A890197F1F76C
:1027A0009A8B898B8B899C8901979C8B8B8B8B89CE
:1027B0009C89009769F714C06D897E898F89988DEF
:1027C0000E944900DC01CB019C8B8B8B8B899C89FF
:1027D000988B8F878F8598890197F1F7988B8F87D2
:1027E00082E061E040E00E94F10B80E090E0A0E830
:1027F000BFE38B879C87AD87BE876B857C858D8586
:102800009E8520E030E84BE355E40E941F02DC0186
:10281000CB018F839887A987BA876F81788589854F
:102820009A8520E030E040E85FE30E947903882346
:102830002CF481E090E09E838D833FC06F8178858A
:1028400089859A8520E03FEF4FE757E40E941903FE
:1028500018164CF56B857C858D859E8520E030E0D3
:1028600040E251E40E941F02DC01CB01BC01CD011A
:102870000E944900DC01CB019E838D830FC08CE256
:1028800091E09C838B838B819C810197F1F79C83E2
:102890008B838D819E8101979E838D838D819E8107
:1028A000009769F714C06F81788589859A850E94A1
:1028B0004900DC01CB019E838D838D819E819A83AB
:1028C000898389819A810197F1F79A8389838D8D14
:1028D00081508D8F8D8D882309F0F6CEA1960FB68D
:1028E000F894DEBF0FBECDBFCF91DF910895DF9387
:1028F000CF93CDB7DEB781E060E00E94FE0881E0B3
:1029000061E00E94FE0881E062E00E94FE0881E032
:1029100063E00E94FE0881E064E00E947B0981E0A0
:1029200065E00E947B0981E066E00E947B0981E00E
:1029300067E00E947B0981E064E00E94470A81E031
:1029400065E00E94470A81E066E00E94470A81E054
:1029500067E00E94470ACF91DF910895DF93CF93FC
:1029600000D000D00F92CDB7DEB78B831A821982C8
:102970008B81282F30E03D832C838C819D81893091
:1029800091056CF42C813D81253031050CF04DC052
:102990008C819D81813091050CF4EFC00DC02C819C
:1029A0003D812D3031050CF479C08C819D818131C0
:1029B00091050CF0E2C0AAC081E060E040E00E9416
:1029C000F10B81E061E041E00E94F10B81E062E007
:1029D00041E00E94F10B81E063E041E00E94F10BD5
:1029E00081E064E00E94460B882319F481E089832A
:1029F000C4C081E065E00E94460B882319F482E0A0
:102A00008983BBC081E066E00E94460B882319F4ED
:102A100083E08983B2C081E067E00E94460B88238F
:102A200009F0ABC084E08983A8C081E060E041E0A8
:102A30000E94F10B81E061E040E00E94F10B81E037
:102A400062E041E00E94F10B81E063E041E00E941E
:102A5000F10B81E064E00E94460B882319F485E0C5
:102A600089838BC081E065E00E94460B882319F4BE
:102A700086E0898382C081E066E00E94460B88235D
:102A800019F487E0898379C081E067E00E94460BF2
:102A9000882309F072C088E089836FC081E060E01C
:102AA00041E00E94F10B81E061E041E00E94F10B06
:102AB00081E062E040E00E94F10B81E063E041E0F0
:102AC0000E94F10B81E064E00E94460B882319F418
:102AD00089E0898352C081E065E00E94460B88232B
:102AE00019F48AE0898349C081E066E00E94460BC0
:102AF000882319F48BE0898340C081E067E00E945D
:102B0000460B8823D1F58CE0898337C081E060E0F3
:102B100041E00E94F10B81E061E041E00E94F10B95
:102B200081E062E041E00E94F10B81E063E040E07F
:102B30000E94F10B81E064E00E94460B882319F4A7
:102B40008DE089831AC081E065E00E94460B8823EE
:102B500019F48EE0898311C081E066E00E94460B83
:102B6000882319F48FE0898308C081E067E00E9420
:102B7000460B882311F480E189839B818981981712
:102B800019F481E08A8301C01A828A810F900F9024
:102B90000F900F900F90CF91DF910895DF93CF9317
:102BA00000D000D000D0CDB7DEB71E821D821C82BF
:102BB0001B821A8219821C8238C08C81282F30E037
:102BC00081E090E002C0880F991F2A95E2F7809576
:102BD0008E8381E06E810E94BD081B8220C081E04F
:102BE00064E00E94460B882391F081E065E00E943A
:102BF000460B882361F081E066E00E94460B882343
:102C000031F081E067E00E94460B882329F48B8134
:102C10008D8381E08A8306C08B818F5F8B838B815C
:102C20008430E8F28C818F5F8C838C81843018F43F
:102C30008A81882311F28C8181508C838C81882336
:102C400019F48D818F5F89838C81813019F48D8196
:102C50008C5F89838C81823019F48D81895F8983AF
:102C60008C81833019F48D81865F898389812696D2
:102C70000FB6F894DEBF0FBECDBFCF91DF910895A0
:102C8000DF93CF93CDB7DEB7AA970FB6F894DEBF28
:102C90000FBECDBFAFE5B0E0EFE5F0E0808180682A
:102CA0008C93ABE5B0E0EBE5F0E0808180648C9341
:102CB000A5E5B0E0E5E5F0E0808181608C9383E0FC
:102CC00062E00E947B090E94470F80E690E068EC7A
:102CD0000E94A11180E090E8ABE3B5E48FA398A730
:102CE000A9A7BAA76FA178A589A59AA520E030E881
:102CF0004BE355E40E941F02DC01CB018BA39CA394
:102D0000ADA3BEA36BA17CA18DA19EA120E030E06C
:102D100040E85FE30E94790388232CF481E090E08F
:102D20009AA389A33FC06BA17CA18DA19EA120E0A5
:102D30003FEF4FE757E40E94190318164CF56FA1B7
:102D400078A589A59AA520E030E040E251E40E94F0
:102D50001F02DC01CB01BC01CD010E944900DC0156
:102D6000CB019AA389A30FC08CE291E098A38F8F27
:102D70008F8D98A10197F1F798A38F8F89A19AA1C0
:102D800001979AA389A389A19AA1009769F714C012
:102D90006BA17CA18DA19EA10E944900DC01CB0109
:102DA0009AA389A389A19AA19E8F8D8F8D8D9E8DC7
:102DB0000197F1F79E8F8D8F81E00E94660F82E070
:102DC0000E94660F8FE00E94660F80918401882F19
:102DD00090E081709070009709F085C08DE690E0DA
:102DE0000E94761080918401882F90E00E94461303
:102DF00080E090E0AAE7B4E4898F9A8FAB8FBC8F14
:102E0000698D7A8D8B8D9C8D20E030E84BE355E405
:102E10000E941F02DC01CB018D8B9E8BAF8BB88F84
:102E20006D897E898F89988D20E030E040E85FE3EE
:102E30000E94790388232CF481E090E09C8B8B8B9B
:102E40003FC06D897E898F89988D20E03FEF4FE7E5
:102E500057E40E94190318164CF5698D7A8D8B8DF5
:102E60009C8D20E030E040E251E40E941F02DC0132
:102E7000CB01BC01CD010E944900DC01CB019C8B40
:102E80008B8B0FC08CE291E09A8B898B89899A8910
:102E90000197F1F79A8B898B8B899C8901979C8B81
:102EA0008B8B8B899C89009769F714C06D897E890B
:102EB0008F89988D0E944900DC01CB019C8B8B8B04
:102EC0008B899C89988B8F878F8598890197F1F7DB
:102ED000988B8F8781E00E94660F82E00E94660FC8
:102EE0008FE00E94660F80918401882F90E08170AE
:102EF0009070882309F469CF86E790E00E947610ED
:102F000080918401882F90E00E94461380E090E039
:102F1000AAE7B4E48B879C87AD87BE876B857C85E9
:102F20008D859E8520E030E84BE355E40E941F022A
:102F3000DC01CB018F839887A987BA876F81788559
:102F400089859A8520E030E040E85FE30E947903BC
:102F500088232CF481E090E09E838D833FC06F81B5
:102F6000788589859A8520E03FEF4FE757E40E94F6
:102F7000190318164CF56B857C858D859E8520E0A0
:102F800030E040E251E40E941F02DC01CB01BC01B1
:102F9000CD010E944900DC01CB019E838D830FC0CF
:102FA0008CE291E09C838B838B819C810197F1F76C
:102FB0009C838B838D819E8101979E838D838D81E0
:102FC0009E81009769F714C06F81788589859A85FD
:102FD0000E944900DC01CB019E838D838D819E81FF
:102FE0009A83898389819A810197F1F79A838983EA
:102FF00081E00E94660F82E00E94660F8FE00E94CF
:10300000660FE3CE1F920F920FB60F9211248F938B
:103010009F93DF93CF93CDB7DEB78091840191E08A
:10302000892780938401CF91DF919F918F910F9099
:103030000FBE0F901F901895AA1BBB1B51E107C034
:10304000AA1FBB1FA617B70710F0A61BB70B881F38
:10305000991F5A95A9F780959095BC01CD010895C7
:103060002F923F924F925F926F927F928F929F9298
:10307000AF92BF92CF92DF92EF92FF920F931F9386
:10308000CF93DF93CDB7DEB7CA1BDB0B0FB6F89437
:10309000DEBF0FBECDBF09942A88398848885F8477
:1030A0006E847D848C849B84AA84B984C884DF80E8
:1030B000EE80FD800C811B81AA81B981CE0FD11DCC
:1030C0000FB6F894DEBF0FBECDBFED010895F894A2
:0230D000FFCF30
:1030D2007374617274696E672E2E2E0A007C633DD2
:1030E2007A65726F0A007C633D0A000000000000EE
:1030F20000000000010202030303030404040404A9
:103102000404040505050505050505050505050570
:103112000505050606060606060606060606060650
:10312200060606060606060606060606060606063D
:103132000606060707070707070707070707070720
:10314200070707070707070707070707070707070D
:1031520007070707070707070707070707070707FD
:1031620007070707070707070707070707070707ED
:1031720007070708080808080808080808080808D0
:1031820008080808080808080808080808080808BD
:1031920008080808080808080808080808080808AD
:1031A200080808080808080808080808080808089D
:1031B200080808080808080808080808080808088D
:1031C200080808080808080808080808080808087D
:1031D200080808080808080808080808080808086D
:1031E200080808080808080808080808080808085D
:0431F20008080800C1
:00000001FF
