:100000000C942A000C943F000C943F000C943F0089
:100010000C943F000C943F000C943F000C943F0064
:100020000C943F000C943F000C943F000C943F0054
:100030000C943F000C943F000C943F000C943F0044
:100040000C943F000C943F000C943F000C943F0034
:100050000C943F0011241FBECFE5D8E0DEBFCDBF1A
:1000600011E0A0E6B0E0E2E6F8E102C005900D92F2
:10007000A838B107D9F70E94C30B0C942F0C0C942D
:100080000000EF92FF920F931F937B018C0120E001
:1000900030E040E05FE40E94410388238CF0C80117
:1000A000B70120E030E040E05FE40E94B9010E9427
:1000B000A1039B01AC01205030404040504806C095
:1000C000C801B7010E94A1039B01AC01B901CA019B
:1000D0001F910F91FF90EF900895A0E0B0E0E3E74B
:1000E000F0E00C94F80BDC012B01FA019C919230AA
:1000F00008F439C1EB018881823008F433C19430AF
:1001000069F4843009F02FC111969C91119789816F
:10011000981709F428C1AFE6B0E025C1843009F48E
:1001200021C18230A9F4923009F01DC19A01AD01BC
:1001300088E0EA010990AE01E90109929E0181502F
:10014000C1F7E201898111969C918923818308C1BD
:10015000923009F407C112962D903C901397EB0151
:100160008A819B811496AD90BD90CD90DC901797BD
:10017000EC80FD800E811F819101281B390BB90194
:1001800037FF04C066277727621B730B6032710547
:100190000CF061C0121613066CF537014801062EEB
:1001A00004C096948794779467940A94D2F721E0D8
:1001B00030E040E050E004C0220F331F441F551FC1
:1001C0006A95D2F721503040404050402E213F21C7
:1001D00040235123211531054105510521F021E02E
:1001E00030E040E050E079018A01E628F72808294C
:1001F00019293CC0232BD1F1260E371E35014601AB
:10020000062E04C096948794779467940A94D2F744
:1002100021E030E040E050E004C0220F331F441FD3
:10022000551F6A95D2F721503040404050402A2156
:100230003B214C215D21211531054105510521F05E
:1002400021E030E040E050E059016A01A628B728DB
:10025000C828D9280BC0821593052CF01C01AA24AC
:10026000BB24650103C0EE24FF24870111969C91F5
:10027000D20111968C91981709F445C0992339F051
:10028000A80197012A193B094C095D0906C0A6017E
:1002900095012E193F09400B510B57FD08C01182E3
:1002A0003382228224833583468357831DC081E0B5
:1002B00081833382228288279927DC01821B930B5A
:1002C000A40BB50B84839583A683B7830DC0220F3F
:1002D000331F441F551F24833583468357838281F0
:1002E000938101979383828324813581468157814D
:1002F000DA01C9010197A109B1098F5F9F4FAF4F83
:10030000BF4328F30BC0918333822282EA0CFB1C8B
:100310000C1D1D1DE482F5820683178383E0808314
:10032000248135814681578157FF1AC0C901AA2708
:1003300097FDA095BA2F81709070A070B0705695FF
:10034000479537952795822B932BA42BB52B848328
:100350009583A683B7838281938101969383828359
:10036000DF0101C0D201CD01CDB7DEB7E2E10C94CF
:10037000140CA0E2B0E0EFEBF1E00C94040C698304
:100380007A838B839C832D833E834F835887E9E058
:10039000EE2EF12CEC0EFD1ECE010196B7010E944F
:1003A00092058E010F5E1F4FCE010596B8010E9487
:1003B00092058A8991E089278A8BC701B801AE012D
:1003C000475E5F4F0E946D000E94BD04A096E6E06C
:1003D0000C94200CA0E2B0E0E0EFF1E00C94040CEF
:1003E00069837A838B839C832D833E834F835887D5
:1003F000F9E0EF2EF12CEC0EFD1ECE010196B701B7
:100400000E9492058E010F5E1F4FCE010596B80126
:100410000E949205C701B801AE01475E5F4F0E947E
:100420006D000E94BD04A096E6E00C94200CA0E2B2
:10043000B0E0EDE1F2E00C94F80B69837A838B83F2
:100440009C832D833E834F835887CE010196BE0146
:10045000675F7F4F0E949205CE010596BE016F5ED9
:100460007F4F0E9492059985923088F08989823069
:10047000C8F0943019F4823051F404C0843029F467
:10048000923081F48FE690E0C6C0923049F420E0CB
:100490009A858A89981321E02A87CE010996BBC0E4
:1004A000823049F420E09A858A89981321E02A8BCA
:1004B000CE014196B0C02D843E844F8458886D880B
:1004C0007E888F88988CEE24FF248701AA24BB2481
:1004D000650140E050E060E070E0E0E0F0E0C10184
:1004E00081709070892BE9F0E60CF71C081D191D2E
:1004F0009A01AB012A0D3B1D4C1D5D1D80E090E073
:10050000A0E0B0E0E614F7040805190520F481E046
:1005100090E0A0E0B0E0BA01A901480F591F6A1F9E
:100520007B1FAA0CBB1CCC1CDD1C97FE08C081E005
:1005300090E0A0E0B0E0A82AB92ACA2ADB2A3196C6
:10054000E032F10549F0660C771C881C991C569422
:10055000479437942794C3CFFA85EA892B893C893D
:100560008B859C85280F391F2E5F3F4F17C0CA010E
:1005700081709070892B61F016950795F794E79438
:1005800080E090E0A0E0B0E8E82AF92A0A2B1B2BD3
:1005900076956795579547952F5F3F4F77FDE7CF46
:1005A0000CC0440F551F661F771F17FD4160EE0CEE
:1005B000FF1C001F111F21503040403090E05907B0
:1005C00090E0690790E4790760F32B8F3C8FDB01A3
:1005D000CA018F779070A070B07080349105A1052A
:1005E000B10561F447FD0AC0E114F10401051105EC
:1005F00029F0405C5F4F6F4F7F4F40781A8EFE1797
:1006000011F081E08A8F4D8F5E8F6F8F78A383E02A
:10061000898FCE0149960E94BD04A096E2E10C9418
:10062000140CA8E1B0E0E7E1F3E00C94040C69835A
:100630007A838B839C832D833E834F83588789E005
:10064000E82EF12CEC0EFD1ECE010196B7010E94A2
:1006500092058E010F5E1F4FCE010596B8010E94D4
:1006600092058985823040F08989823028F0C7015F
:10067000B8010E940A0601C08FEF6896E6E00C946C
:10068000200CA8E1B0E0E7E4F3E00C94040C6983EB
:100690007A838B839C832D833E834F83588789E0A5
:1006A000E82EF12CEC0EFD1ECE010196B7010E9442
:1006B00092058E010F5E1F4FCE010596B8010E9474
:1006C00092058985823040F08989823028F0C701FF
:1006D000B8010E940A0601C08FEF6896E6E00C940C
:1006E000200CA8E1B0E0E7E7F3E00C94040C698388
:1006F0007A838B839C832D833E834F83588789E045
:10070000E82EF12CEC0EFD1ECE010196B7010E94E1
:1007100092058E010F5E1F4FCE010596B8010E9413
:1007200092058985823040F08989823028F0C7019E
:10073000B8010E940A0601C081E06896E6E00C94C8
:10074000200CACE0B0E0E7EAF3E00C94080C69831D
:100750007A838B839C83CE010196BE016B5F7F4FB2
:100760000E9492058D81823061F1823050F1843097
:1007700021F48E81882351F12EC02F81388537FDD9
:1007800020C06E812F3131051CF06623F9F023C0A3
:100790008EE190E0821B930B29853A854B855C8521
:1007A00004C056954795379527958A95D2F76623C5
:1007B000B1F050954095309521953F4F4F4F5F4F89
:1007C0000EC020E030E040E050E009C02FEF3FEFE6
:1007D0004FEF5FE704C020E030E040E050E8B901AF
:1007E000CA012C96E2E00C94240CA8E0B0E0EBEFF8
:1007F000F3E00C94000C7B018C01611571058105FF
:10080000910519F482E0898360C083E089838EE1D9
:10081000C82ED12CDC82CB82ED82FE820F8318871A
:10082000C801B7010E946E04FC013197F7FF3BC07D
:10083000222733272E1B3F0B57016801022E04C0CD
:10084000D694C794B794A7940A94D2F740E050E0A6
:1008500060E070E081E090E0A0E0B0E004C0880FCC
:10086000991FAA1FBB1F2A95D2F70197A109B109A9
:100870008E219F21A023B1230097A105B10521F06E
:1008800041E050E060E070E04A295B296C297D2955
:100890004D835E836F8378878EE190E08E1B9F0B84
:1008A0009C838B8312C0309781F00E2E04C0EE0C17
:1008B000FF1C001F111F0A94D2F7ED82FE820F83E6
:1008C0001887CE1ADF0ADC82CB821A82CE0101960B
:1008D0000E94BD042896EAE00C941C0CEF92FF9253
:1008E0000F931F937B018C0180E0E81680E0F806EF
:1008F00081E0080780E0180788F48FEFE816F1041C
:100900000105110531F028F088E090E0A0E0B0E0AA
:1009100017C080E090E0A0E0B0E012C080E0E816F0
:1009200080E0F80680E0080781E0180728F088E1F9
:1009300090E0A0E0B0E004C080E190E0A0E0B0E092
:1009400020E230E040E050E0281B390B4A0B5B0B03
:1009500004C016950795F794E7948A95D2F7F701A6
:10096000E958FF4F8081281B310941095109C9010C
:100970001F910F91FF90EF900895DF92EF92FF92F9
:100980000F931F93FC01E480F58006811781D180CD
:100990008081823048F480E090E0A0E1B0E0E82A75
:1009A000F92A0A2B1B2BA5C0843009F49FC0823082
:1009B00021F4EE24FF24870105C0E114F1040105B0
:1009C000110519F4E0E0F0E096C0628173819FEFB9
:1009D000623879070CF05BC022E83FEF261B370B2B
:1009E0002A3131052CF020E030E040E050E02AC010
:1009F000B801A701022E04C07695679557954795D3
:100A00000A94D2F781E090E0A0E0B0E004C0880F43
:100A1000991FAA1FBB1F2A95D2F70197A109B109F7
:100A20008E219F21A023B1230097A105B10521F0BC
:100A300081E090E0A0E0B0E09A01AB01282B392BD7
:100A40004A2B5B2BDA01C9018F779070A070B070D0
:100A500080349105A105B10539F427FF09C0205C58
:100A60003F4F4F4F5F4F04C0215C3F4F4F4F5F4F91
:100A7000E0E0F0E02030A0E03A07A0E04A07A0E480
:100A80005A0710F0E1E0F0E079018A0127C06038F0
:100A9000710564F5FB01E158FF4FD801C7018F775D
:100AA0009070A070B07080349105A105B10539F443
:100AB000E7FE0DC080E490E0A0E0B0E004C08FE36A
:100AC00090E0A0E0B0E0E80EF91E0A1F1B1F17FF20
:100AD00005C016950795F794E794319687E016952B
:100AE0000795F794E7948A95D1F705C0EE24FF2483
:100AF0008701EFEFF0E06E2F679566276795902FDF
:100B00009F77D794DD24D7948E2F8695492F462B37
:100B1000582F5D29B701CA011F910F91FF90EF90E7
:100B2000DF900895FC01DB01408151812281622F19
:100B30006F7770E0221F2227221F9381892F880F51
:100B4000822B282F30E0991F9927991F11969C938B
:100B5000119721153105A9F541155105610571055B
:100B600011F482E037C082E89FEF13969C938E9336
:100B700012979A01AB0167E0220F331F441F551FE4
:100B80006A95D1F783E08C930DC0220F331F441F69
:100B9000551F12968D919C911397019713969C93D4
:100BA0008E931297203080E0380780E0480780E479
:100BB000580758F314962D933D934D935C931797D4
:100BC00008952F3F310579F44115510561057105EF
:100BD00019F484E08C93089564FF03C081E08C9342
:100BE00012C01C9210C02F57304013963C932E9386
:100BF000129783E08C9387E0440F551F661F771F81
:100C00008A95D1F7706414964D935D936D937C93A0
:100C1000179708951F93DC01FB019C91923008F413
:100C200047C08081823008F443C0943051F411965B
:100C30001C91843099F58181682F70E0611B7109E6
:100C40003FC0843021F0923031F48230B9F181819B
:100C5000882389F12DC011961C9111978230F1F0F3
:100C600081811817D9F412962D913C9113978281A6
:100C700093818217930794F028173907BCF01496D4
:100C80008D919D910D90BC91A02D2481358146813F
:100C90005781281739074A075B0718F4112341F0D9
:100CA0000AC082179307A407B50740F4112319F06F
:100CB00061E070E005C06FEF7FEF02C060E070E0C0
:100CC000CB011F9108959C010AC0A901489F900182
:100CD000499F300D589F300D112461507040623093
:100CE000710598F7C901089540E006C06AE070E018
:100CF0000E94E40BCB014F5F0097C1F7842F08954A
:100D0000CF92DF92EF92FF920F931F93CF93DF93D7
:100D10006C01162F0E947406E12FF0E090E0E817B6
:100D2000F907D1F4E130F105B9F09F0121503040CD
:100D30006AE070E00CC0CB01880F991F13E0660FCA
:100D4000771F1A95E1F7680F791F21503040223044
:100D5000310588F7C60184C0113039F4C6016AE054
:100D600070E00E94E40BBC017DC0412F50E0415077
:100D700050409A016AE070E00CC0CB01880F991FC7
:100D8000A3E0660F771FAA95E1F7680F791F21503E
:100D900030402230310588F79A018AE0E82EF12CA4
:100DA0000CC0C701880F991F13E0EE0CFF1C1A95A9
:100DB000E1F7E80EF91E215030402230310588F766
:100DC0009F010AE010E00CC0C801880F991FA3E042
:100DD000000F111FAA95E1F7080F191F215030408D
:100DE0002230310588F7CAE0D0E00BC0CE01880F71
:100DF000991FA3E0CC0FDD1FAA95E1F7C80FD91FFB
:100E00003197E230F10590F7EAE0F0E00CC0CF0155
:100E1000880F991F23E0EE0FFF1F2A95E1F7E80FD7
:100E2000F91F415050404230510588F7C6010E94D9
:100E3000E40BE69E9001E79E300DF69E300D1124E6
:100E4000C601B8010E94E40BC69FC001C79F900D68
:100E5000D69F900D1124A901481B590BCA01BF014F
:100E60000E94E40BCB01DF91CF911F910F91FF9076
:100E7000EF90DF90CF900895813051F0813028F0CD
:100E8000823049F0833061F409C08FEF8ABB089546
:100E90008FEF87BB08958FEF84BB08958FEF81BBE1
:100EA0000895813059F0813028F0823059F0833034
:100EB00081F40CC01ABA8FEF8BBB089517BA8FEF6D
:100EC00088BB089514BA8FEF85BB089511BA8FEFD0
:100ED00082BB0895813051F0813028F0823049F092
:100EE000833061F409C08FEF8BBB08958FEF88BB0F
:100EF00008958FEF85BB08958FEF82BB08958130F1
:100F000049F0813028F0823039F0833041F406C056
:100F10001BBA089518BA089515BA089512BA08951B
:100F2000813049F0813028F0823039F0833041F44B
:100F300006C089B3089586B3089583B3089580B336
:100F40000895813049F0813028F0823039F08330C3
:100F500041F406C06BBB089568BB089565BB089556
:100F600062BB0895813091F0813028F08230C9F061
:100F7000833061F521C02AB381E090E002C0880F80
:100F8000991F6A95E2F7282B2ABB089527B381E0C1
:100F900090E002C0880F991F6A95E2F7282B27BBC3
:100FA000089524B381E090E002C0880F991F6A95EC
:100FB000E2F7282B24BB089521B381E090E002C022
:100FC000880F991F6A95E2F7282B21BB089581307D
:100FD000C1F0813030F0823021F1833009F040C01F
:100FE00030C03AB381E090E002C0880F991F6A9543
:100FF000E2F7282F209523232ABB2BB3822B8BBB10
:10100000089537B381E090E002C0880F991F6A9578
:10101000E2F7282F2095232327BB28B3822B88BBF8
:10102000089534B381E090E002C0880F991F6A955B
:10103000E2F7282F2095232324BB25B3822B85BBE1
:10104000089531B381E090E002C0880F991F6A953E
:10105000E2F7282F2095232321BB22B3822B82BBCA
:101060000895813091F0813028F08230C9F08330CA
:1010700061F521C02BB381E090E002C0880F991F79
:101080006A95E2F7282B2BBB089528B381E090E006
:1010900002C0880F991F6A95E2F7282B28BB089594
:1010A00025B381E090E002C0880F991F6A95E2F7AE
:1010B000282B25BB089522B381E090E002C0880F61
:1010C000991F6A95E2F7282B22BB0895813099F089
:1010D000813028F08230D9F0833081F524C02BB3E1
:1010E00081E090E002C0880F991F6A95E2F7809531
:1010F00082238BBB089528B381E090E002C0880F63
:10110000991F6A95E2F78095822388BB089525B3DD
:1011100081E090E002C0880F991F6A95E2F7809500
:10112000822385BB089522B381E090E002C0880F3E
:10113000991F6A95E2F78095822382BB08958130DA
:1011400049F0813028F0823039F0833041F516C003
:1011500029B303C026B301C023B381E090E0062E7B
:1011600002C0880F991F0A94E2F730E0822393238C
:1011700002C0959587956A95E2F7089520B381E0BE
:1011800090E0062E02C0880F991F0A94E2F730E023
:101190008223932302C0959587956A95E2F7089577
:1011A0004130B1F5813099F0813030F08230D1F0AA
:1011B000833009F067C021C02BB381E090E002C00A
:1011C000880F991F6A95E2F7282B2BBB089528B347
:1011D00081E090E002C0880F991F6A95E2F7282B02
:1011E00028BB089525B381E090E002C0880F991FC5
:1011F0006A95E2F7282B25BB089522B381E090E0A1
:1012000002C0880F991F6A95E2F7282B22BB089528
:101210004423C1F5813099F0813028F08230D9F033
:10122000833081F524C02BB381E090E002C0880FA9
:10123000991F6A95E2F7809582238BBB089528B3A6
:1012400081E090E002C0880F991F6A95E2F78095CF
:10125000822388BB089525B381E090E002C0880F07
:10126000991F6A95E2F78095822385BB089522B382
:1012700081E090E002C0880F991F6A95E2F780959F
:10128000822382BB089589B7816089BF089589B799
:101290008E7F89BF089589B7826089BF089589B715
:1012A0008D7F89BF089588B78170089588B790E0D1
:1012B0008270907095958795089588B7816088BFF2
:1012C000089588B7826088BF0895833091F0843094
:1012D00028F4813041F08230B1F408C0843061F0EC
:1012E000853089F40DC083B7816008C083B7826000
:1012F00005C083B7836002C083B7846083BF08954D
:1013000083B7856083BF089583B7887F83BF0895BF
:1013100083B7806883BF0895813019F0823039F433
:1013200003C089B7816002C089B78E7F89BF62BF61
:1013300083B7877B83BF0895982F83B7877B83BF4D
:1013400083B7886083BF913059F0913028F0923094
:1013500071F09330D1F412C0BB9883B78F7C14C066
:10136000BB9A83B78F7C83BF83B780610DC0BB9A64
:1013700083B78F7C83BF83B7806206C0BB9A83B775
:101380008F7C83BF83B7806383BF613019F0623085
:1013900039F403C089B7826002C089B78D7F89BFE5
:1013A00022BF4CBF0895982F83B7877B83BF83B735
:1013B000886483BF913049F0913018F0923099F4ED
:1013C0000BC0BB9883B78F7C0DC0BB9A83B78F7C53
:1013D00083BF83B7806306C0BB9A83B78F7C83BF0C
:1013E00083B7806283BF613019F0623039F403C083
:1013F00089B7816002C089B78E7F89BF22BF4CBF89
:101400000895EF92FF920F931F93CF93DF93EC0118
:101410000E947406082F88EBE82E8BE0F82E25C07A
:10142000CE01602F0E948006182F82E060E041E02C
:101430000E94D00882E062E040E00E94D008105D87
:1014400080E0612F0E94A10782E061E041E00E94FC
:10145000D008C7010197F1F782E061E040E00E9407
:10146000D008C7010197F1F701500023C9F6DF91B9
:10147000CF911F910F91FF90EF9008952F923F927F
:101480005F926F927F928F929F92AF92BF92CF9214
:10149000DF92EF92FF920F931F93CF93DF931C0184
:1014A0005524662E77248824992460C082E060E069
:1014B00041E00E94D00882E062E040E00E94D00853
:1014C00080E068810E94A10782E061E041E00E9423
:1014D000D00888EB9BE00197F1F782E061E040E003
:1014E0000E94D00888EB9BE00197F1F7C401B3019B
:1014F0000E94F5035B016C0120E030E84BE355E40A
:101500000E9417027B018C0120E030E040E85FE39D
:101510000E94710388231CF461E070E023C0C801BD
:10152000B70120E03FEF4FE757E40E941103181680
:10153000ACF4C601B50120E030E040E251E40E9485
:1015400017020E94410006C08CE291E00197F1F77A
:101550006150704061157105B9F707C0C801B70146
:101560000E944100CB010197F1F75394E101C50DB1
:10157000D11D88818A3009F099CFDF91CF911F91D9
:101580000F91FF90EF90DF90CF90BF90AF909F9022
:101590008F907F906F905F903F902F900895CF92A3
:1015A000DF92EF92FF921F93CF93DF937C0110E0C5
:1015B00098EBC92E9BE0D92E1FC082E060E041E08D
:1015C0000E94D00882E062E040E00E94D00880E003
:1015D00068810E94A10782E061E041E00E94D0089A
:1015E000C6010197F1F782E061E040E00E94D00877
:1015F000C6010197F1F71F5FE701C10FD11D888177
:101600008A30D9F6DF91CF911F91FF90EF90DF9054
:10161000CF9008950F931F93182F82E060E040E071
:101620000E94D00882E062E040E00E94D00880E0A2
:10163000612F0E94A10782E061E041E00E94D00892
:1016400008EB1BE0C8010197F1F782E061E040E0A0
:101650000E94D008C8010197F1F71F910F910895DA
:1016600080E00E943C0782E061E00E94B20782E0D5
:1016700062E00E94B20782E060E00E94B20788E365
:101680000E940A0B81E00E940A0B8FE00E940A0B65
:101690000895AF92BF92DF92EF92FF920F931F9344
:1016A000CF93DF93EE2400E010E020E3A22E25E7A5
:1016B000B22ED02E81E0602F40E00E94D008E801D9
:1016C000CC0FDD1FCC0FDD1FC958DE4F84E0F82E94
:1016D00081E06F2D0E949F08882351F4E88081E00B
:1016E0006F2D0E949F088823D1F3C5010197F1F760
:1016F000F394219688E0F81659F781E06D2D41E0CA
:101700000E94D0080F5F1F4F0430110591F68E2DF7
:10171000DF91CF911F910F91FF90EF90DF90BF90DD
:10172000AF90089581E060E00E94B20781E061E03F
:101730000E94B20781E062E00E94B20781E063E0AC
:101740000E94B20781E064E00E94E70781E065E063
:101750000E94E70781E066E00E94E70781E067E01A
:101760000E94E70781E064E00E94310881E065E0C3
:101770000E94310881E066E00E94310881E067E064
:101780000E94310808950E94300B0E94920B80E65F
:1017900090E068EC0E943E0A80E29EE42CE231E098
:1017A000F9013197F1F70197D9F781E00E940A0B0F
:1017B00082E00E940A0B8FE00E940A0B0E94490BF4
:1017C00090E00E94010AFACFAA1BBB1B51E107C09F
:1017D000AA1FBB1FA617B70710F0A61BB70B881FC1
:1017E000991F5A95A9F780959095BC01CD01089550
:1017F0002F923F924F925F926F927F928F929F9221
:10180000AF92BF92CF92DF92EF92FF920F931F930E
:10181000CF93DF93CDB7DEB7CA1BDB0B0FB6F894BF
:10182000DEBF0FBECDBF09942A88398848885F84FF
:101830006E847D848C849B84AA84B984C884DF8070
:10184000EE80FD800C811B81AA81B981CE0FD11D54
:101850000FB6F894DEBF0FBECDBFED010895F8942A
:02186000FFCFB8
:101862006C657427732073746172742E2E0A0000E3
:101872000000000000000000010202030303030451
:10188200040404040404040505050505050505050D
:1018920005050505050505060606060606060606ED
:1018A20006060606060606060606060606060606D6
:1018B20006060606060606070707070707070707BD
:1018C20007070707070707070707070707070707A6
:1018D2000707070707070707070707070707070796
:1018E2000707070707070707070707070707070786
:1018F200070707070707070808080808080808086D
:101902000808080808080808080808080808080855
:101912000808080808080808080808080808080845
:101922000808080808080808080808080808080835
:101932000808080808080808080808080808080825
:101942000808080808080808080808080808080815
:101952000808080808080808080808080808080805
:1019620008080808080808080808080808080808F5
:1019720008080808080808070809100405060F01E6
:0819820002030E010A090D0029
:00000001FF
